:100000000C94A8020C94EF020C94EF020C94EF02F3
:100010000C94EF020C94EF020C94EF020C94EF029C
:100020000C94EF020C94EF020C949F2D0C94732E01
:100030000C94A7280C94EF020C94EF020C94EF029E
:100040000C94EF020C94EF020C94EF020C94EF026C
:100050000C94EF020C941A290C94EF020C94EF020A
:100060000C94EF020C94EF020C94EF020C94EF024C
:100070000C94EF020C94EF020C94EF020C94EF023C
:100080000C94EF020C94EF020C94EF020C94EF022C
:100090000C94EF020C94EF020C94EF020C94EF021C
:1000A0000C94EF020C94EF020C94EF0235001E004A
:1000B0001F0020002100220023002400250026002C
:1000C00027002D002E002A002B0F14001A00080014
:1000D000150017001C0018000C00120013002F0060
:1000E00030003100296104001600070009000A00F1
:1000F0000B000D000E000F0033003400000028003C
:10010000E1001D001B000600190005001100100091
:10011000360037003800E50000000000E000E20093
:10012000E300000000002C43000000000000000776
:10013000015102510000650010503A003B003C00A4
:100140003D003E003F0040004100420043004400AB
:1001500045004C00010001005200010001000100B7
:10016000B200010049000100460047004800005C61
:100170000100500051004F0001000100010001008A
:10018000010001004A004B0000000100AC00AA0081
:10019000A900A80001000100145C010001004D004D
:1001A0004E00AB0000000000010001000100000053
:1001B000000001000000000000000100010001003B
:1001C0000000010010503A003B003C003D003E00A2
:1001D0003F004000410042004300440045004C0005
:1001E0000100C35C0100C65CC75CC85CC95CCA5C3A
:1001F000CB5CC45C010001000100005C0100010057
:10020000010001000100010001000100CC5CCD5C97
:1002100001000100000001000100010001000100D7
:1002200001000100010001000100010001000100C6
:1002300000000000010001000100000000000100BA
:1002400000000000000001000100010000000100AA
:10025000290001000100010001000100005C010013
:100260000100010001000100010001000100010086
:10027000010001000100010001000100AA00A90025
:10028000AE00BC00BB000100010001000100010044
:10029000010001005000510052004F000100010018
:1002A0000000010001000100010001000100010047
:1002B0000100010001000100010001000000000038
:1002C000010001000100000000000100000000002A
:1002D0000000010001000100000001000001010117
:1002E00001010101010102020202020202020203F3
:1002F00003030303030303040404040404040505C3
:100300000505050606060606070707070708080885
:1003100008090909090A0A0A0B0B0B0C0C0C0D0D34
:100320000D0E0E0E0F0F0F101011111112121313CC
:100330001414151516161717181819191A1A1B1B45
:100340001C1D1D1E1E1F20202122222324242526A1
:1003500026272829292A2B2C2D2D2E2F30313232D9
:10036000333435363738393A3B3C3D3E3F404142E5
:10037000434445464748494A4C4D4E4F50515354CB
:10038000555658595A5B5D5E5F616264656668697F
:100390006B6C6D6F7072737577787A7B7D7E8082FF
:1003A000838587888A8C8E8F91939596989A9C9E48
:1003B000A0A2A3A5A7A9ABADAFB1B3B5B7BABCBE58
:1003C000C0C2C4C6C9CBCDCFD1D4D6D8DBDDDFE225
:1003D000E4E7E9EBEEF0F3F5F8FAFDFF1A03440069
:1003E0005A00360030005200470042005F004100D2
:1003F0004E005300490000000E0344005A00540010
:1004000045004300480000000403090409023B00C2
:10041000020100A0FA090400000103010100092102
:10042000110100012240000705810308000A0904A8
:100430000100010300000009211101000122B600A2
:100440000705820320000A12011001000000085A6B
:1004500044211202000102000105010902A10185E7
:10046000020901A1000509190129081500250195B6
:1004700008750181020501093009311581257F9533
:10048000027508810609381581257F950175088157
:1004900006050C0A38021581257F9501750881062D
:1004A000C0C005010980A101850319012AB7001503
:1004B0000126B700950175108100C0050C0901A146
:1004C00001850419012AA002150126A002950175D3
:1004D000108100C005010906A1018505050719E085
:1004E00029E7150025019508750181020507190006
:1004F00029EF1500250195F0750181020508190104
:100500002905950575019102950175039101C005B5
:10051000010906A101050719E029E7150025019544
:1005200008750181029501750881010507190029E7
:10053000FF150026FF0095067508810005081901C2
:100540002905950575019102950175039101C0007A
:1005500011241FBECFEFDAE0DEBFCDBF04B603FE2D
:1005600027C08091170790911807A0911907B091A3
:100570001A078730904BA740B04BD1F41092170761
:10058000109218071092190710921A0714BE84B718
:10059000877F84BF0FB6F894A8958091600088612A
:1005A00080936000109260000FBEE0E0F8E30995D0
:1005B00013E0A0E0B1E0ECE5F3E602C005900D9297
:1005C000A839B107D9F727E0A8E9B3E001C01D9227
:1005D000A731B207E1F70E94DB2A0C946D310C942D
:1005E000000081E00E9449160C94532880E00E948C
:1005F00049160C949B280E94751C81FF07C02FEFA1
:100600004FEF6FEF88E290E00C949F0D089581E02A
:10061000089581E008950C94090308950C940D0346
:100620001F93CF93DF9300D000D00F92CDB7DEB7EA
:1006300049835A836B833091720489819A81311185
:100640001DC06623B9F02223A9F00E947C25182F33
:10065000682F89819A810E94282569817A81812F5A
:100660000F900F900F900F900F90DF91CF911F91EF
:100670000C94D6030E945425182FEFCF0E947C259E
:1006800069817A81EDCFFC01262F40815181628101
:10069000738184810C941003CF93DF93EC0160E0AD
:1006A0000E944303BE01DF91CF910C940E030E9480
:1006B000D6050E94ED150C94FB050C94FE050895DB
:1006C0000E940A210E945F032FEF84E39CE02150E7
:1006D00080409040E1F700C000000C943E290F9349
:1006E0001F93CF93DF938C0161E00E944303EC01E1
:1006F000B8010E940B038823D9F1B801CE010E94F2
:100700000D1A8823A9F1B801CE010E945F1A88232F
:1007100079F1B801CE010E94821B882349F1B8010A
:10072000CE010E940719882319F1F80182818823DC
:1007300061F0CB35FDE5DF0721F170F4C115ECE583
:10074000DE07A1F0CF3DDC45C9F0C801DF91CF91B4
:100750001F910F910C940703CC358DE5D807A1F0BC
:10076000CD35DD4591F70E942326EFCF0E9460032F
:1007700080E0DF91CF911F910F9108950E948F2704
:10078000F7CF0E942C26E1CF0E942F26DECF0895BE
:100790000C94C70381E008950C94CA03CF93C82F2B
:1007A0000E94C8038C2FCF910C94CC03972F70E03C
:1007B0002EE0929F600D711D1124FB0196E4899F2C
:1007C000E00DF11D1124EE0FFF1FE455FF4F859141
:1007D00094910895CF93DF930E94D6030E94E4047E
:1007E000EC01811521E5920708F042C0811530E542
:1007F000930708F09DC0883E910530F5803E910535
:1008000008F092C0883A910588F4853A910508F07D
:1008100084C08130910509F487C0009709F484C031
:10082000049708F081C0D0E0C0E07EC08F3B910506
:10083000D0F7C85AD0E0CC0FDD1FCD5EDC4F099059
:10084000D881C02DD46470C08115904250F4C11578
:1008500081E0D80708F068C0CD3ED10520F3D0650F
:1008600063C0C11590E4D907F0F2DF70D06A5CC0B4
:10087000811525E5920700F5811534E5930708F009
:100880008BC0811543E5940708F073C0C11582E55C
:10089000D80708F469C0CE018370992721E030E0C1
:1008A00002C0220F331F8A95E2F7C695C69580E2F3
:1008B000C89FE001112454C0C11599E5D907A8F4D7
:1008C000C11528E5D20708F06CC0C11536E5D3077D
:1008D00008F0A9CF8C2F0E947B05C82FD0E0DC2F19
:1008E000CC27CC27DF71D0621FC0C1154AE5D407E1
:1008F00008F45CC0CE0190568115904208F093CF69
:100900008D2F8F710E947B0590E0982F8827882774
:100910009F719C012C2BE901E6CFC55AD0E0CF5B3B
:10092000DC4FC881D0E0D064CE01DF91CF91089533
:10093000E4E096958795EA95E1F783702C2F26954C
:100940002695237040E2249F90011124382B8C2F90
:100950008370C1E0D0E002C0CC0FDD1F8A95E2F7C2
:10096000C22BD32BDC68E0CFDC2FCC27C16FD06A41
:10097000DBCF8370992721E030E002C0220F331FC4
:100980008A95E2F7C695C69590E2C99FE0011124C9
:10099000C22BD32BDA68C8CFD82FCC27C46FD06A2C
:1009A000C3CFDC2FCC27C06FD06ABECF8C2F8F7007
:1009B0000E947B0534E0D695C7953A95E1F7CF7054
:1009C0009C2FEC01D069B0CF82389105B1F1B0F421
:1009D0008133910509F475C048F48932910509F411
:1009E00069C08A32910509F473C008958533910571
:1009F00009F459C08933910501F10895833E9105A9
:100A0000A9F138F4803E9105F9F0823E910549F153
:100A10000895863E9105A9F1873E9105C9F1843E6E
:100A2000910519F520912A0521FF1FC08091290504
:100A300084FD14C087EE90E008952091290523706D
:100A4000A1F080EE90E008952091290520FD47C097
:100A500030912A0530FF09C024FF44C090E080E0B7
:100A600004C02091290522FDF7CF08952091290582
:100A700022FD3BC030912A0530FDE3CF24FFF5CFA6
:100A8000EDCF2091290523FFF0CF24FDE7CFD2CF72
:100A90002091290523FD2CC030912A0531FFEECF8E
:100AA00084EE90E008952091290525FFDECF89E2AC
:100AB00090E008952091290525FFD7CF85E390E0A8
:100AC00008952091290526FFD0CF8AE290E008956D
:100AD0002091290526FFC9CF81E390E0089589E39D
:100AE00090E0089583EE90E0089582EE90E00895FE
:100AF00086EE90E008959091290592FF06C0282F78
:100B000028712830F9F4877F846093FF06C0282F6E
:100B100028712831F1F4877E846120912A0520FF15
:100B200006C0382F38713830D9F4877F816021FFB3
:100B300006C0282F28712831D1F4877E816194FD69
:100B4000877E0895282F24712430F9F68B7F8860E2
:100B5000DCCF282F2471243101F78B7E8861DDCF13
:100B6000382F3171313019F78E7F8860E0CF282F10
:100B70002171213121F78E7E8861E1CF0C94E4262A
:100B80000E9477068FEB9DE50197F1F700C000000A
:100B90000E94770680E00E94000680FF04C00E9449
:100BA000BE050C943E2908950C94C0050E94EA26C7
:100BB000811102C00E948F270E94F52680930505AF
:100BC0000E94FD2690932A05809329050E94D40552
:100BD0000E94F926682F70E090E080E00E942A24AD
:100BE0006091D8047091D9048091DA049091DB046B
:100BF0000C94642408950C94FA0508950C94FD0552
:100C0000E82FF0E0EE0FFF1FEB5CFA4F808191813F
:100C10000895089580EA8A95F1F7089500C008952F
:100C20000C940A06F894E82FE295EF70F0E031A1F9
:100C3000282F2F7081E090E001C0880F2A95EAF7F5
:100C4000982F9095932391A392A1892B82A37894B6
:100C500008950F931F93CF93DF9385EF0E941206A1
:100C600084EF0E94120681EF0E94120683E30E9425
:100C7000120682E30E941206C4E4D3E002E513E008
:100C800089910E9412060C171D07D1F710922C05AE
:100C900010922B05109236051092350510922E05F4
:100CA00010922D05109238051092370510923005DC
:100CB00010922F0510923A051092390510923205C4
:100CC0001092310510923C0510923B0510923405AC
:100CD0001092330510923E0510923D0585E00E946A
:100CE000F706DF91CF911F910F910C945703AF92AC
:100CF000BF92DF92EF92FF920F931F93CF93DF93F8
:100D0000C2E5D3E00BE215E0D12CEE24E394F12C04
:100D10008991F894E82FE295EF70F0E021A18F70AF
:100D2000A70102C0440F551F8A95E2F7CA01922F0E
:100D3000982B91A392A18095892382A378940E94F5
:100D40000E06E4E4F3E030E020E0B12CA12C419168
:100D5000A42FA295AF70B0E090968C9190E04F7068
:100D600002C0959587954A95E2F780FD3BC0C70183
:100D7000022E02C0880F991F0A94E2F7A82AB92A06
:100D80002F5F3F4F2E30310511F7FE0131978081E3
:100D90000E9412060E941006F80180819181A81617
:100DA000B90619F1B182A08281E0D82A0E5F1F4FE7
:100DB000F3E0C735DF0709F0ABCF2D2D45E065E344
:100DC00075E08BE295E00E94F8060E945D038D2D90
:100DD000DF91CF911F910F91FF90EF90DF90BF9027
:100DE000AF90089590E080E0C9CF80E0DECF089515
:100DF000FF920F931F93CF93DF93F82E092F162F97
:100E0000D72FC42F222349F081E080939C030E94B6
:100E1000D72890939B0380939A0380919C03882307
:100E2000A1F080919A0390919B030E94EF28049770
:100E300060F0EF2DF02FA12FBD2F90E080E0D0E0EB
:100E40008C179D0744F010929C03DF91CF911F9166
:100E50000F91FF900895219131912D933D9301962B
:100E6000EFCF8091A30380FF12C06091060285E05E
:100E7000689FB001112475956795759567956038E1
:100E80007105A8F561157105A1F1862F089581FFFF
:100E900009C06091060285E0689FB0011124759534
:100EA0006795EDCF6091060282FD0AC08091A20392
:100EB0008823D1F09091050260910602891728F0ED
:100EC00085E0689FB0011124DACF869FB00111241C
:100ED00085E0869F9001879F300D1124692F70E077
:100EE000C9010E943930CBCF65E070E0CECF8FE7EB
:100EF000089581E008958091A30380FF0CC0609164
:100F0000020270E075956795759567956115710595
:100F100049F1862F089581FF06C06091020270E0BA
:100F200075956795F3CF6091020282FD0BC0909199
:100F3000A1039923A1F0609101028091020296170A
:100F400038F0682F70E06038710500F38FE708957E
:100F5000899FC001112470E00E943930F4CF61E014
:100F600070E0D7CF81E008958D3E31F40E943107C3
:100F700081958093A70308958E3E19F40E9431074E
:100F8000F8CF8F3E31F40E94310781958093A603FC
:100F90000895803F19F40E943107F8CF893F29F462
:100FA0000E947B078093A80308958A3F21F40E9442
:100FB0007B078195F7CF8B3F31F40E947B078195AA
:100FC0008093A90308958C3F19F40E947B07F8CF02
:100FD0009FE0980F983070F4815F990B21E030E02A
:100FE00001C0220F8A95EAF78091A503822B809396
:100FF000A50308958D3F31F48091A3038160809310
:10100000A30308958E3F21F48091A3038260F7CF5C
:101010008F3FB9F78091A3038460F1CF4091A6037D
:101020008D3E59F48091A70387FF0DC01092A7034E
:1010300041110BC01092A20308C08E3E81F4809132
:10104000A70318169CF3442381F08091A803909184
:10105000A903892B09F05AC01092A10308958F3E6D
:1010600049F447FFF0CF1092A6038091A7038111A6
:10107000ECCFE0CF803F19F41416ACF3E4CF90919D
:10108000A803893F29F41916F4F61092A803DBCFC0
:101090008A3F19F497FFD7CFF8CF9091A9038B3FE0
:1010A00029F497FFD0CF1092A903CDCF8C3F19F42C
:1010B0001916CCF3C8CF9FE0980F983090F4815F59
:1010C000990B21E030E0B90102C0660F771F8A95C5
:1010D000E2F7CB0180959091A50389238093A50326
:1010E000B2CF8D3F31F48091A3038E7F8093A30311
:1010F000AACF8E3F21F48091A3038D7FF7CF8F3F3E
:1011000009F0A1CF8091A3038B7FF0CF08950E94B7
:10111000D7289C019091A6038091A703982B21F0DA
:101120003093A00320939F039091A8038091A9037B
:10113000982B21F030939E0320939D0384EA93E043
:101140000C949C1CEF92FF920F931F93CF93DF930D
:1011500000D000D000D0CDB7DEB786E0E4EAF3E0FF
:10116000DE01119601900D928A95E1F7E090A603B9
:10117000F090A7030091A8031091A9031092A60371
:101180001092A7031092A8031092A9038E2D8F2905
:1011900091F080919F039091A0030E94EF28AC01F1
:1011A0009091A203992309F43FC08091070284170C
:1011B000150608F447C0802F812B91F080919D0384
:1011C00090919E030E94EF28AC019091A103992376
:1011D00009F477C0809103028417150608F47FC0D4
:1011E0008091A6039091A703892B9091A803892B46
:1011F0009091A903892B11F00E94870886E0FE01D7
:101200003196A4EAB3E001900D928A95E1F7269613
:101210000FB6F894DEBF0FBECDBFDF91CF911F9107
:101220000F91FF90EF900895209108028AE0289F87
:10123000900111242417350708F0BDCF9F5F9093CC
:10124000A20302C09F3FD1F7EE2059F00E94310760
:101250009FEF1E140CF491E0899F802D1124809340
:10126000A603FF2059F00E9431079FEF1F140CF4D2
:1012700091E0899F802D11248093A7033091A603CC
:10128000332309F498CF2091A703222309F493CFA5
:1012900045EB3403C0011124992359F09093A60320
:1012A00045EB240390011124332339F03093A70335
:1012B00082CF81E08093A603F3CF81E08093A703E0
:1012C0007ACF209104028AE0289F900111242417EC
:1012D000350708F085CF9F5F9093A10302C09F3F21
:1012E000D1F7002359F00E947B079FEF10160CF4F2
:1012F00091E0899F802D11248093A803112359F038
:101300000E947B079FEF11160CF491E0899F802DBE
:1013100011248093A9033091A803332309F460CFEB
:101320002091A903222309F45BCF45EB3403C001CC
:101330001124992359F09093A80345EB24039001BD
:101340001124332339F03093A9034ACF81E08093ED
:10135000A803F3CF81E08093A90342CF86E0E4EABB
:10136000F3E0DF011D928A95E9F71092A203109233
:10137000A1031092A3030895EF92FF920F931F937E
:10138000CF93DF93EB01E82FD11110C0442321F05C
:10139000F0E0E452FD4FE4916E2F7E2F8E2FDF910F
:1013A000CF911F910F91FF90EF9008950D2F10E0B6
:1013B000282F30E0442329F024523D4FF901249195
:1013C00030E0F6E0CF9FC0011124EFEFF0E0BF0165
:1013D0000E942530AB018C2F90E0880F991FA5E566
:1013E000A49FB001A59F700D1124861B970B982F09
:1013F000990F980FBF01601B710B629FD001639F13
:10140000B00D729FB00D11248B2F9D9FB001112440
:10141000672F7727EF01C61BD70BBE01629FE00144
:10142000639FD00D729FD00D11247F01E91AF1083E
:10143000E09EB001E19E700DF09E700D1124672FAB
:101440007727E61BF70BE29F8001E39F100DF29FC9
:10145000100D1124E12F722F4230510599F048F4FC
:101460004115510569F04130510581F0EB2F8D2F69
:1014700007C04430510569F080F046305105B1F79E
:101480006E2F8DCFE22F7B2F812FFACFE22F7D2F72
:10149000F7CFEB2F822F712FF3CF7B2F822FED2FE2
:1014A000EFCF41E00C94BC0930E020E0869F212D75
:1014B000969F200D311D1124C9010895AC01823081
:1014C000910508F408959FEF413E8EE1580740F4DE
:1014D0009A0195E0369527959A95E1F798E0920F55
:1014E00061E0E62FE90FFF27FF1F9F013595279544
:1014F000822F229FF001239FF00DF00D11244E1733
:101500005F0738F49FEF920F961758F78FEF860F0B
:1015100008952F3FE9F361E0620FF6CFE82F86FDD3
:10152000E0952E2F2F7086FD2F5FE695E695E695C8
:10153000E670F0E0E95AFC4F9181929F902D212DA9
:10154000112492959F702295207F922B2081920FDB
:1015500087FD919580E8890F0895E42FF0E0EE0F64
:10156000FF1FE65BFE4F408134EE439F412D112467
:10157000E82FF0E050E0445E5F4FDA01A21BB109B2
:101580009D01B7FF03C031952195310993E0220FEA
:10159000331F9A95E1F7AF01421B530B9A0157FD98
:1015A00020E0582F259F212D1124822F0895622F8E
:1015B0000895E42FF0E0EE0FFF1FE65BFE4F608121
:1015C000621B0895E42FF0E0EE0FFF1FE55BFE4F76
:1015D0006081621B0895322F50E0FA01EE0FFF1F69
:1015E000E55BFE4F9081905297FD9195440F551FFA
:1015F000FA01E65BFE4F2081231B330B290F311DBF
:1016000097FD3A95620F0895EF920F93972F23E07D
:10161000029FB0011124759567956E0D792F0F917A
:10162000EF9008950F93CF93DF93D72FC82F47FDE7
:10163000419588E390E0841B910947FD9395889F2D
:10164000B001899F700D700D1124229FC001239F4E
:10165000900D900D1124860F971F0E945E0A982FFF
:10166000990F890F682F600F7D2F8C2FDF91CF91FD
:101670000F9108950F931F93522F10E0F801EE0F72
:10168000FF1FE55BFE4FA081A052BB0B9D015203E3
:10169000F001539FF00D1124000F111FD801A65B1C
:1016A000BE4F0C910057110B40039001419F300D2C
:1016B00011242E0F3F1F37FF02C021583F4F220F2A
:1016C000232F221F330B620F1F910F9108950F9349
:1016D0001F93522F10E0F801EE0FFF1FE55BFE4F46
:1016E000A081A052BB0B9D015203F001539FF00D4E
:1016F0001124000F111FD801A65BBE4F0C9100579B
:10170000110B40039001419F300D11242E0F3F1FFC
:1017100037FF02C0215C3F4F96E0359527959A959B
:10172000E1F7620F1F910F9108950F931F9310E03F
:10173000F801EE0FFF1FE65BFE4F9081905797FD7B
:101740009195000F111FF801E55BFE4F00810052DB
:10175000110B2003F001219FF00D112408E310E08C
:10176000091B110997FD139540039001419F300D0E
:101770001124E20FF31F9F01220F331F2E0F3F1F73
:1017800037FF02C021583F4F220F232F221F330B58
:10179000620F1F910F9108950F931F93CF93DF93C3
:1017A0008B01D82FC42F822F0E948E0AEC2FF0E0DD
:1017B000EE0FFF1FE65BFE4F90819058890F87FD6B
:1017C0008195880F682F2CE0629F612D1124600F96
:1017D000712F8D2FDF91CF911F910F910895E42FDD
:1017E000F0E0EE0FFF1FE65BFE4F9081921B97FD2E
:1017F0009195292F38E1239F212D1124620F0895FF
:101800004095282F429F412D1124842F089522E8CE
:10181000241B08F420E0620F0895FC019B0100974F
:1018200029F480E077FF2BC080E80895AC0197FF92
:1018300004C044275527481B590BB901640F751F75
:1018400037FD10C0241B350BC901A5E0880F991F77
:10185000AA95E1F70E94393080E2861BF7FF0FC09E
:1018600081950895CB0165E0880F991F6A95E1F78E
:10187000BA01621B730B0E94393080E6EECF0895E7
:101880000F931F93CF93DF93D62FC72F182FC90124
:10189000212F201B022FBA010E940D0C982F990FA7
:1018A000990F891B800F282F219F212D1124822F12
:1018B0006D2F7C2FDF91CF911F910F910895EF92A3
:1018C0000F931F93CF93DF93D62FC72F182FC901E4
:1018D0000E19010FBA010E940D0C081B202F219F29
:1018E000212D1124822F6D2F7C2FDF91CF911F91FD
:1018F0000F91EF9008950F93CF93DF93D72FC82FB9
:10190000C901BA010E940D0C682F600F7D2F8C2F2A
:10191000DF91CF910F910895EF920F93CF93DF93C3
:10192000D72FC82FC9010E19BA010E940D0C602FC4
:10193000681B7D2F8C2FDF91CF910F91EF90089531
:101940000C94510AEF92FF920F931F93CF93DF9362
:101950009FEF980F41E0480FAFEFA60FE1E0E60FD1
:10196000082F10E0A61780F42EE0209FE001219FB1
:10197000D00D1124C852DC4FCA0FD11D288130E18F
:10198000230F08F42FEF2883262F30E05EE0509FCE
:10199000E001519FD00D11248E0108521C4F780197
:1019A000020F131FE801588170E2570F08F45FEF30
:1019B0005883EE3048F4E701CE0FD11D588170E115
:1019C000570F08F45FEF5883453018F1C92FD0E066
:1019D000A61708F459C04EE04C9FC0014D9F900DD2
:1019E000112488529C4FDC01A20FB31F2C9130E1CF
:1019F000230F08F42FEF2C93EE3008F03EC0E80FD1
:101A0000F92FF11D20813DE0230F08F42FEF2083F3
:101A100034C050E0A61780F47EE0749FE001759F0B
:101A2000D00D1124C852DC4FCA0FD11D78811DE0A2
:101A3000710F08F47FEF78837EE0749FE001759F5B
:101A4000D00D11248E0108521C4F7801020F131F74
:101A5000E801488150E1450F08F44FEF4883EE302C
:101A600048F4E701CE0FD11D48815DE0450F08F431
:101A70004FEF4883981708F4A9CFDF91CF911F91BA
:101A80000F91FF90EF9008954EE04C9FC0014D9F45
:101A9000900D112488529C4FA80FB92FB11D4C9165
:101AA0005DE0450F08F44FEF4C9395CF46E050E0D2
:101AB0006CE170E08FE395E00C94F93046E050E083
:101AC0006CE170E08FE395E00C941731EFE3F5E003
:101AD00085E2808380911C0290911D02A0911E02DC
:101AE00081839283A3838FE784838FEF85830C9414
:101AF0005E0D80E008950F931F93CF93DF93C82F5F
:101B0000D62F8A010E94790D9EE0C99FB001112451
:101B10006C5F7E4F6D0F711DFB0190819F3F29F01F
:101B2000F801E80FF11D90838F5FDF91CF911F9136
:101B30000F910895E0916503F09166030994E09197
:101B40006103F091620309945F926F927F928F928A
:101B50009F92AF92BF92CF92DF92EF92FF920F933C
:101B60001F93CF93DF935C014B01FC01C0818DE09B
:101B7000C89FC02D11241DE01C0FF12E1E3310F044
:101B80003DE3F32E60914305669580914505909164
:101B900046050E94540A582ED0E0CF15A0F081E0EF
:101BA0001D3308F080E0DF91CF911F910F91FF90DE
:101BB000EF90DF90CF90BF90AF909F908F907F90ED
:101BC0006F905F900895FE01EC53FE4F8081F50108
:101BD00091818923C9F1CE01880F991F8C5F9E4F97
:101BE000FC01EA5BFF4F2081422F4057550B6A01F1
:101BF000895B9F4FFC018081282F2052330B3901D4
:101C0000449F9001459F300D300D1124669CC0010A
:101C1000679C900D900D1124820F931F0E945E0A05
:101C2000082F609140057091410580914205E52C97
:101C30009301A601F40109950E94A00C462F282FBC
:101C4000672FCE010E949F0D2196A7CF6FE57CE004
:101C50000C94A40D64E07BE00C94A40D6CE87CE093
:101C60000C94A40DAF92BF92CF92DF92EF92FF92AD
:101C70000F931F93CF93DF936C017B01FC01C08115
:101C80008DE0C89FC02D11241DE01C0FB12E1E3306
:101C900010F03DE3B32E60914305669580914505B4
:101CA000909146050E94540AA82ED0E0CB1578F0FA
:101CB00081E01D3308F080E0DF91CF911F910F91FB
:101CC000FF90EF90DF90CF90BF90AF900895FE010E
:101CD000EC53FE4F8081F6019181892311F1CE01F1
:101CE000880F991F8C5F9E4FFC01E95BFF4F20819D
:101CF0002052330B8A5B9F4FFC0140814057550BAC
:101D00006091400570914105809142050A2DF701CF
:101D100009950E94A00C462F282F672FCE010E9404
:101D20009F0D2196C3CF60E47CE00C94320E62E1FB
:101D30007BE00C94320E6BE77CE00C94320EBF9289
:101D4000CF92DF92EF92FF920F931F93CF93DF9387
:101D50007C018B01FC01C0818DE0C89FC02D112446
:101D60009DE0D92EDC0ECD2CFDE3FD1510F48DE3A6
:101D7000C82E609143056695669521E0620F08F4D0
:101D80006FEF80914505909146050E94540AB82E48
:101D9000D0E0CC1578F081E09CE39D1508F480E05C
:101DA000DF91CF911F910F91FF90EF90DF90CF9037
:101DB000BF900895FE01EC53FE4F8081F7019181A1
:101DC000892391F060914005709141058091420511
:101DD0002B2D4C2FF80109950E94A00C462F282F7F
:101DE000672FCE010E949F0D2196D3CF6DEA7AE036
:101DF0000C949F0E67ED7AE00C949F0E69ED7AE0EB
:101E00000C949F0E62EE7AE00C949F0E6BEE7AE0DB
:101E10000C949F0E6CEC7BE00C949F0E6FEE7BE0BD
:101E20000C949F0E7F928F929F92AF92BF92CF920F
:101E3000DF92EF92FF920F931F93CF93DF935C019A
:101E40006B01FC01C0818DE0C89FC02D11241DE0F5
:101E50001C0F912E1E3310F03DE3932E609143052D
:101E60006695669580914505909146050E94540AB5
:101E7000F82E80E48F0D0E948E0A90E8892E880E3D
:101E80008F2D0E948E0A20E8722E780ED0E0C915A0
:101E900090F081E01D3308F080E0DF91CF911F9139
:101EA0000F91FF90EF90DF90CF90BF90AF909F90F9
:101EB0008F907F900895FE01EC53FE4F8081F501D5
:101EC00091818923A1F06091400570914105809135
:101ED0004205EF2C0C2F272D482DF60109950E9465
:101EE000A00C462F282F672FCE010E949F0D219610
:101EF000CECF6AE37BE00C94120F67E67BE00C9494
:101F0000120F65E97BE00C94120FAF92BF92CF9253
:101F1000DF92EF92FF920F931F93CF93DF938C0189
:101F20007B01FC01C0818DE0C89FC02D11242DE0F4
:101F3000B22EBC0EAB2CFDE3FB1510F49DE3A92ED5
:101F40002091430531E0230F08F42FEF30E050E0FB
:101F500040E06FEF7FEF80E090E00E944D3069013C
:101F6000D0E02C2FCA1580F081E0FCE3FB1508F4CB
:101F700080E0DF91CF911F910F91FF90EF90DF9064
:101F8000CF90BF90AF900895FE01EC53FE4F80813B
:101F9000F8019181892311F1409149054150042EA6
:101FA000000C550B47FF1CC0C6016091430521E0A2
:101FB000620F08F46FEF0E94540AAC016091400573
:101FC0007091410580914205F70109950E94A00C8E
:101FD000462F282F672FCE010E949F0D2196C1CF3B
:101FE000FA01E75BFA4F818982130AC0FA01EE0F0A
:101FF000FF1FE75BFA4F818D928D8C159D05A8F22E
:1020000041505109CFCF60E07CE00C94850F67E030
:102010007CE00C94850FBF92CF92DF92EF92FF92FB
:102020000F931F93CF93DF937C01FC01C0818DE060
:10203000C89FC02D11241DE01C0F012F1E3308F076
:102040000DE36091400570914105809142050E9429
:10205000A00CD62EC72EB82ED0E0C01770F081E0AD
:102060001D3308F080E0DF91CF911F910F91FF9019
:10207000EF90DF90CF90BF900895FE01EC53FE4F9C
:102080008081F7019181892331F02B2D4D2D6C2D0D
:10209000CE010E949F0D2196E0CF8F929F92AF922A
:1020A000BF92CF92DF92EF92FF920F931F93CF9345
:1020B000DF937C01FC01C0818DE0C89FC02D1124FD
:1020C0001DE01C0F012F1E3308F00DE3C0904105E9
:1020D000D0904205D09140056D2F7C2D8D2D0E9412
:1020E000A00CB62EA72E982E609143056D0F7C2D67
:1020F0008D2D0E94A00CD62EC72E882ED0E0C017A2
:1021000088F081E01D3308F080E0DF91CF911F91CE
:102110000F91FF90EF90DF90CF90BF90AF909F9086
:102120008F900895FE01EC53FE4F9081F70181815D
:10213000892359F0282D4D2D6C2D90FD03C0292D9C
:102140004B2D6A2DCE010E949F0D2196D8CFBF92B4
:10215000CF92DF92EF92FF920F931F93CF93DF9373
:102160008C01FC01C0818DE0C89FC02D11245DE071
:10217000F52EFC0EDF2CFDE3FF1510F44DE3D42EFD
:10218000C0904105B09042052091430530E4E32E14
:102190003E2D329F312D1124E32ED0E0CD1578F065
:1021A00081E03CE33F1508F480E0DF91CF911F917F
:1021B0000F91FF90EF90DF90CF90BF900895FE01B8
:1021C000EC53FE4F8081F80191818923D9F0FE0103
:1021D000EE0FFF1FE65BFE4F6081E69EB00111240B
:1021E00095E0759567959A95E1F780914005680FA0
:1021F0007C2D8B2D0E94A00C462F282F672FCE01FF
:102200000E949F0D2196CACFBF92CF92DF92EF928C
:10221000FF920F931F93CF93DF938C01FC01C0813A
:102220008DE0C89FC02D11249DE0F92EFC0EEF2CEF
:10223000FDE3FF1510F48DE3E82ED0904005D0911A
:102240004105C09042056091430566956695669587
:1022500080914505909146050E94540A0E948E0A7D
:10226000805887FD8195880F282F3C2D239F212D95
:102270001124822F6D2D7D2F0E94A00CD62EC72EEB
:10228000B82ED0E0CE1578F081E02CE32F1508F4BD
:1022900080E0DF91CF911F910F91FF90EF90DF9041
:1022A000CF90BF900895FE01EC53FE4F8081F8015E
:1022B0009181892331F02B2D4D2D6C2DCE010E9463
:1022C0009F0D2196DFCFDF92EF92FF920F931F9326
:1022D000CF93DF938C01FC01EC53FE4F8081682388
:1022E00081F1D0904105D0914205C0914005EC2E7E
:1022F000F12C0E94E030282FC7018C549F4F68E6D4
:1023000071E00E9439308E199F0997FD03969595CB
:1023100087959595879523706C2F289F600D1124C4
:102320007D2D8D2F0E94A00C462F282F672FC801CE
:10233000DF91CF911F910F91FF90EF90DF900C9460
:102340009F0DDF91CF911F910F91FF90EF90DF9044
:102350000895DF92EF92FF920F931F93CF93DF9335
:102360008C01FC01C281C11125C06091430520E1AF
:10237000620F08F46FEF80914505909146050E9429
:10238000540A6AE070E00E942530892B51F40E94C3
:10239000E0306DE370E00E943930F80161810E9405
:1023A00063118C2FDF91CF911F910F91FF90EF90D0
:1023B000DF900895C0818DE0C89FC02D11248DE06D
:1023C000D82EDC0E8D2DFDE3FD1508F48DE3D0E055
:1023D000E82EF12CCE15DF0534F0C1E0FCE3FD154D
:1023E00000F7C0E0DECFF8016181CE010E946311E9
:1023F0002196F0CF1F93CF93DF93EC01FC01EC53B8
:10240000FE4F80816823A1F00E94E030182F0E94C7
:10241000E030612F782F809142050E94A00C462F5A
:10242000282F672FCE01DF91CF911F910C949F0D24
:10243000DF91CF911F910895DF92EF92FF920F935A
:102440001F93CF93DF938C01FC01C281C11125C082
:102450006091430520E1620F08F46FEF809145051C
:10246000909146050E94540A65E070E00E94253074
:10247000892B51F40E94E0306DE370E00E94393006
:10248000F80161810E94FA118C2FDF91CF911F9189
:102490000F91FF90EF90DF900895C0818DE0C89F6D
:1024A000C02D11248DE0D82EDC0E8D2DFDE3FD1501
:1024B00008F48DE3D0E0E82EF12CCE15DF0534F0E2
:1024C000C1E0FCE3FD1500F7C0E0DECFF80161815B
:1024D000CE010E94FA112196F0CFBF92CF92DF92E7
:1024E000EF92FF920F931F93CF93DF937C01FC0138
:1024F000C0818DE0C89FC02D11241DE01C0F012F4D
:102500001E3308F00DE3C0904105D0904205D091F4
:1025100040056091430566956695669580914505F1
:10252000909146050E94540A0E948E0A805887FDA9
:102530008195880F682F2CE0629F612D11246D0F0B
:102540007C2D8D2D0E94510AD62EC72EB82ED0E09C
:10255000C01770F081E01D3308F080E0DF91CF916B
:102560001F910F91FF90EF90DF90CF90BF90089553
:10257000FE01EC53FE4F8081F7019181892331F0F8
:102580002B2D4D2D6C2DCE010E949F0D2196E0CF5D
:10259000E0916303F091640309942F923F924F926C
:1025A0005F926F927F928F929F92AF92BF92CF92E3
:1025B000DF92EF92FF920F931F93CF93DF93CDB7EC
:1025C000DEB729970FB6F894DEBF0FBECDBF6C0102
:1025D000DC010C918DE0089F002D1124BDE0B00FAF
:1025E000B9874B2EB73410F086E4482EF60182816D
:1025F000882361F040E060E080E00E94C812E8EDCE
:10260000F3E086E4DF011D928A95E9F7F601808107
:10261000811115C080911F04909120040E94EF2821
:1026200021E08931910508F420E020931E044997A8
:1026300030F00E94D7289093200480931F0410E06C
:10264000512C9E012F5F3F4F390104151505F4F001
:1026500081E0F985F63408F080E029960FB6F89409
:10266000DEBF0FBECDBFDF91CF911F910F91FF90C5
:10267000EF90DF90CF90BF90AF909F908F907F9022
:102680006F905F904F903F902F900895C80165E044
:1026900070E00E9439305B014C013EE0389FF00150
:1026A000399FF00D1124E852FC4FE60FF71F3080E0
:1026B000A3010E947B0D282E73018E2D8619821591
:1026C000C0F080911E04882389F0232D31E0231B64
:1026D00008F420E0AEE0A89DC001A99D900D112452
:1026E00088529C4FA80EB91EF50120830F5F1F4F23
:1026F000ACCFD701EC91F0E0EC53FE4F8081F601B6
:102700009181892321F1232D35E5231B08F420E055
:102710006AEA621B709141052AEA332D230F08F4FF
:102720002FEF30914205822F880F820F8E5F282F66
:10273000239F212D1124822F0E94A00C462FD70108
:102740009C91282F672F892F90E00E949F0DBFEF4B
:10275000EB1AFB0AB2CFAF92BF92CF92DF92EF9209
:10276000FF920F931F93CF93DF93CDB7DEB72897D8
:102770000FB6F894DEBF0FBECDBFE82ED62E142FB5
:102780000E94011D882309F454C0F12C112341F04B
:10279000AE014F5F5F4F6D2D8E2D0E947B0DF82E89
:1027A000C090AA030F2D10E0C8018C0D911D099750
:1027B00064F188E090E05C01A01AB10AB8016555A7
:1027C0007C4FA5018BEA93E00E94F030B8016D5474
:1027D0007C4FA50183EB93E00E94F030A501440FEC
:1027E000551FB801660F771F6D537C4F83EC93E044
:1027F0000E94F030B80165547C4FA5018BEB93E04B
:102800000E94F030CA94C092AA031091AA03DE017C
:10281000119640E0842F810FF4121CC08093AA030C
:1028200080913F058C7F803621F46D2D8E2D0E9486
:10283000A20C28960FB6F894DEBF0FBECDBFDF9175
:10284000CF911F910F91FF90EF90DF90CF90BF90AD
:10285000AF9008955D91252F30E090E0BC01665562
:102860007C4FF901EE0FFF1FE65BFE4F0081FB017D
:102870000183220F331FF901E55BFE4F2081FB012D
:102880002187518B880F991FFC01E655FC4F128E52
:10289000118E4F5FBFCF08950E944B140C94FB0222
:1028A00008950895CF93DF93FC01C0818DE0C89F08
:1028B000C02D1124D3EFDC0FCE3308F0CDE36C2F05
:1028C0008D2F0E9450146C2F8D2FDF91CF910C947F
:1028D00051144F925F926F927F928F929F92AF921C
:1028E000BF92CF92DF92EF92FF92CF936091D3038A
:1028F0007091D4038091D5039091D6030E94FE2855
:102900006B017C010E94E3284B015C018092D303A0
:102910009092D403A092D503B092D603A091AA03BB
:10292000EAEAF3E08A2F90E04FEF5FEF60E070E0BB
:102930004C195D096E097F09A9132AC08093AA0367
:102940008091D703C0E0811108C080913F05C82F56
:10295000C37019F0C82FC695C695809109028130C1
:1029600009F440C0882339F1823009F418C183305A
:1029700009F420C1CF91FF90EF90DF90CF90BF90EE
:10298000AF909F908F907F906F905F904F90089541
:10299000218D328D2901712C612C44155505660558
:1029A000770520F481509F5F3296C6CF2C0D3D1DD8
:1029B000328F218FF8CF10920A02809245059092B3
:1029C0004605A0924705B092480589E2EAEAF3E09D
:1029D000A9E4B5E001900D928A95E1F781E080933A
:1029E0000902C8CF80910D02C81323C090913F0502
:1029F000937020910E0230E081E09217130609F4E3
:102A000080E0817080930C028091440590910B02CC
:102A1000981739F080930B0240E060E080E00E945C
:102A2000C812CB3188F4EC2FF0E0E159FE4C0C9445
:102A30006C3081E0E6CF80910C02882359F040E0B1
:102A400060E080E00E94C81280E004C08AE092E06A
:102A50000E940B1090910A029F5F90930A028111CD
:102A60009AC082E08093090280910C02811193C088
:102A7000CC2309F49DC00E944C148AE092E0CF91CF
:102A8000FF90EF90DF90CF90BF90AF909F908F908E
:102A90007F906F905F904F900C9452148AE092E078
:102AA0000E944D10D7CF8AE092E00E94A710D2CFAB
:102AB0008AE092E00E940411CDCF8AE092E00E9469
:102AC000F60EC8CF8AE092E00E94930EC3CF8AE050
:102AD00092E00E94260EBECF8AE092E00E94FA0E9B
:102AE000B9CF8AE092E00E94FE0EB4CF8AE092E075
:102AF0000E94020FAFCF8AE092E00E94060FAACF99
:102B00008AE092E00E942A0EA5CF8AE092E00E941D
:102B1000970EA0CF8AE092E00E949B0E9BCF8AE0A6
:102B200092E00E942E0E96CF8AE092E00E94790FEA
:102B300091CF8AE092E00E947D0F8CCF8AE092E0F4
:102B40000E94810F87CF8AE092E00E94A91182CF74
:102B50008AE092E00E941C127DCF8AE092E00E94FF
:102B60006D1278CF8AE092E00E940A0F73CF8AE05C
:102B700092E00E940E0F6ECF8AE092E00E94CD128A
:102B800069CF8AE092E00E94031064CF8AE092E06D
:102B90000E9407105FCFCC2309F4ECCE6CCFC0931A
:102BA0000D0280913F05837080930E020E949A0D62
:102BB00083E015CF609145057091460580914705EA
:102BC000909148050E94FE286031710581059105AC
:102BD00008F4D0CE10920902CDCEE0915F03F091BF
:102BE00060030995109249058FEF9FEF909363055D
:102BF00080936205909365058093640590936705C3
:102C000080936605909369058093680590936B05A2
:102C100080936A0590936D0580936C0590936F0582
:102C200080936E0590937105809370051092AA03AE
:102C30009093C4038093C3039093C6038093C5030A
:102C40009093C8038093C7039093CA038093C903EA
:102C50009093CC038093CB039093CE038093CD03CA
:102C60009093D0038093CF039093D2038093D103AA
:102C70000E94EA26811104C00E948F270E94660DDF
:102C80000E94560D80913F058C7F11F40C94660DC7
:102C90000895CF93C82F882329F040E060E080E0BA
:102CA0000E94C812C093D703CF91089590913F0519
:102CB00021E0922790933F051092090281110C9414
:102CC0005E0D089581E00C94561690913F05937027
:102CD00099F0811109C0946090933F051092090208
:102CE000662351F00C945E0D8B3110F09866F4CF92
:102CF000880F880F982BF0CF089561E00C9465162B
:102D0000682F90913F059695969581E0890F8B31BC
:102D100008F081E00C94651681E00C948016682F11
:102D200090913F05969596958FEF890F09F48AE16A
:102D30000C94651681E00C948F1690913F0593706A
:102D400049F080934005609341054093420521116D
:102D50000C945E0D0895AFE3B5E01196EC911197D8
:102D6000F0E0282F13964C91139712966C91CF0197
:102D700008960C949D1681E00C94AB16EFE3F5E0F9
:102D80009181282F43816281E92FE850FF0BCF0109
:102D90000C949D1681E00C94BE16EFE3F5E0628181
:102DA00020E1620F08F46FEF9181282F4381892F72
:102DB00090E00C949D1681E00C94CD16EFE3F5E0C5
:102DC000628120E1621B08F460E09181282F438139
:102DD000892F90E00C949D1681E00C94DE16EFE3B1
:102DE000F5E0438120E1420F08F44FEF9181282F55
:102DF0006281892F90E00C949D1681E00C94EF166F
:102E0000EFE3F5E0438120E1421B08F440E09181CB
:102E1000282F6281892F90E00C949D1681E00C94FC
:102E200000172091430530E1230F08F42FEF209382
:102E3000430581110C945E0D089581E00C941117E7
:102E40002091430530E1231B08F420E02093430543
:102E500081110C945E0D089581E00C94201760E0C0
:102E600080E50E949A1861E080E50C949A18CF934F
:102E70000E94AC1B60E080E50E949317C0E021E057
:102E800041E061E08C2F0E942518CF5FCD33B9F768
:102E900060E080E50E94CF1861E080E5CF910C945E
:102EA000CF186093F2064093F30624E630E042E048
:102EB00050E062EF76E0880F0E943D1C21E0892BF4
:102EC00009F020E0822F0895EF92FF921F93CF9395
:102ED000DF937B01182F110FD0E0C0E0C093F20602
:102EE000D701AC0FBD1FE3EFF6E08D91819387E032
:102EF000E330F807D1F724E630E041E150E062EF3B
:102F000076E0812F0E943D1C892B59F46096C03CCD
:102F1000D10521F781E0DF91CF911F91FF90EF90D4
:102F2000089580E0F8CF1F93CF93DF93C82FD62F5B
:102F300045EC6EEF0E94511740E06DEF8C2F0E9420
:102F4000511710E040E0612F8C2F0E9451171F5F36
:102F50001831C1F745EC6EEF8C2F0E94511741E0FC
:102F60006DEF8C2F0E94511710E040E0612F8C2FE5
:102F70000E9451171F5F103CC1F745EC6EEF8C2F7C
:102F80000E94511743E06DEF8C2F0E9451174FEFB5
:102F900061E08C2F0E94511780E4D89FA00111247A
:102FA000416060E08C2F0E9451178FE39CE90197EC
:102FB000F1F700C00000DF91CF911F910895CF93EA
:102FC000DF938D33910520F5880F991F880F991F86
:102FD000FC01E15EFD4FA281338180818370C1815C
:102FE000E82FF0E050EC859FC00111248E589A4FD5
:102FF000C80FD92FD11D6883A80FB92FB11D4C93CD
:10300000830F911DDC012C93ED5AFB4F81E08083EF
:10301000DF91CF910895FF920F931F93CF93DF938A
:10302000182F062FF42ED0E0C0E02F2D402F612F57
:10303000CE010E94DF172196CD33D105B1F7DF9184
:10304000CF911F910F91FF900895FF920F931F93BF
:10305000CF93DF9354E0859FF0011124E15EFD4F93
:10306000B18172813381F72EF694F694F694A32FF2
:10307000A695A695A69577703770808183700B2FE3
:10308000069506950695E82FF0E0C8E18C9FC001F3
:1030900011248D5D9B4F080F192F111DE8015881D8
:1030A000B77081E090E001C0880FBA95EAF7662317
:1030B000C1F1852B888358E15E9FC0015F9F900D11
:1030C00011248D5D9B4FEC01CF0DD11D588181E006
:1030D00090E001C0880F7A95EAF7442329F1852B07
:1030E000888348E14E9FC0014F9F900D11248D5D54
:1030F0009B4FA80FB92FB11D4C9181E090E001C00A
:10310000880F3A95EAF7222391F0842B8C93EF5D98
:10311000FB4F81E08083DF91CF911F910F91FF9052
:10312000089580958523C6CF80958523D9CF809536
:103130008423ECCFEF92FF920F931F93CF93DF93F3
:10314000D82FC62F062F10E0C8018D5A9B4F7C0147
:10315000FC0180818823D1F045EC6EEF8D2F0E9419
:10316000511741E06DEF8D2F0E945117F0ECCF9F6A
:10317000B00111246E587A4F8D2F0E94641781116F
:1031800005C0F801EF5DFB4F81E08083F7011082FD
:10319000DF91CF911F910F91FF90EF900895EF92E3
:1031A000FF920F931F93CF93DF93E82EC62F062F26
:1031B00010E00F5D1B4FF80180818823D1F045ECB2
:1031C0006EEF8E2D0E94511740E06DEF8E2D0E9404
:1031D0005117F8E1CF9FE0011124CD5DDB4FF12CB9
:1031E00049916F2D8E2D0E945117F39488E1F812AA
:1031F000F7CFF8011082DF91CF911F910F91FF90CF
:10320000EF900895FA01811101C0FB0109940F9319
:103210001F93CF938C01FB01C281CC2309F48FC093
:103220000E94322682720B3CFCE51F0709F472C033
:1032300060F5063CECE51E0709F458C080F4043C38
:103240009CE5190709F448C008F04BC0033C1C4535
:1032500009F43FC08C2FCF911F910F910895083C26
:103260009CE5190709F44CC008F445C0093CFCE58D
:103270001F0709F44AC04EE057E16DEF76E10A3CC2
:103280001C4541F70E9402191EC0003DECE51E07D7
:1032900009F453C080F40D3C9CE5190709F444C0BF
:1032A000F0F10E3CFCE51F0709F443C00F3C1C4540
:1032B00089F684E03FC0073D9CE5190730F48EE0B5
:1032C000023D1C45B8F1C0E0C5CF0E351D45D9F310
:1032D000C1CF0E946216F7CF4AE956E16CE876E169
:1032E000D1CF4CE856E16AE976E1CCCF4AEC56E121
:1032F0006BEB76E1C7CF4BEB56E16AEC76E1C2CFE0
:103300004CEE56E16BED76E1BDCF4BED56E16CEE48
:1033100076E1B8CF4DEF56E16EE077E1B3CF4CE206
:1033200057E16DE177E1AECF4DE157E16CE277E136
:10333000A9CF81E00E947D16C6CF89E0FBCFC1E016
:1033400089CF0F931F93CF93DF93C42FD22FFC010C
:1033500082818823C9F0409357040E94D728909314
:1033600056048093550480E28C0F883008F050C0DA
:10337000C77081E001C0880FCA95EAF7DF91CF914D
:103380001F910F910C949E1E10915704141335C079
:1033900080915504909156040E94EF28883C910535
:1033A00060F5C0E2CD0F1D17B9F080E2810F8830C3
:1033B00040F4177081E001C0880F1A95EAF70E9467
:1033C000A51EC83048F481E09D2F977001C0880F7A
:1033D0009A95EAF70E949E1E802F0E94961EC83082
:1033E000B8F4D77081E001C0880FDA95EAF7DF9171
:1033F000CF911F910F910C94A51E80E28C0F883005
:1034000038F4C77081E001C0880FCA95EAF7EFCFA2
:10341000DF91CF911F910F9108950F939C01CB01E4
:10342000243F4CE5340759F1A8F4293DFCE53F075A
:1034300001F12A3D4CE53407D1F1283D3C4591F49A
:1034400006E221EE41EE68ED7CE50E94A11980E0E4
:103450000F910895263FFCE53F07E9F0B0F0273FC4
:103460003C45F9F0FC018281882339F11092570420
:10347000EFCF07E225EE45EE69ED7CE5E6CF06E20B
:1034800021EE40EE64EF7CE5E0CF07E225EE44EE6E
:1034900065EF7CE5DACF06E221EE42EE66EF7CE5F1
:1034A000D4CF07E225EE46EE67EF7CE5CECF08E20B
:1034B00021E045EE6AED7CE5C8CF81E0C9CFCF932E
:1034C000DF93EC01FB018281882309F419C1C2302A
:1034D000FCE5DF07C0F1C6319CE5D90730F09E015D
:1034E0002B5F3C452930310570F50E94FD269093F5
:1034F0002A0580932905C031ECE5DE0709F4CFC029
:1035000008F05BC0C8308CE5D80709F4B6C088F570
:10351000C430ECE5DE0709F4A8C0C0F4C2308CE585
:10352000D80709F49CC0809129058260C330DC452E
:1035300009F498C08091290590912A050E940B27D3
:103540000E940A2180E0DF91CF91089580912905A2
:103550008061C630ECE5DE0709F484C0809129055E
:103560008860C730DC4508F47DC080912905806201
:1035700079C0CC308CE5D80709F489C070F480910B
:1035800029058C60CA30ECE5DE0709F46BC008F44D
:1035900078C0809129058E7F65C0CE308CE5D80734
:1035A00009F479C0809129058B7FCF30DC4508F480
:1035B00059C0809129058F7E55C0CC3FECE5DE07D0
:1035C00009F457C030F5C3318CE5D80709F46FC052
:1035D00078F4C131ECE5DE0709F465C0C231DC45A1
:1035E00009F0A8CF0E940A21809129058F773AC05F
:1035F000C5318CE5D80709F462C008F476C0809123
:103600002A058160CB3FDC4509F094CF80932A05E1
:1036100091CFC115FDE5DF0709F44DC088F4809115
:103620002A058D7FCE3F9CE5D90781F380912A053D
:103630008E7FCF3FDC4550F380912A058360E6CF33
:10364000C230FDE5DF0709F459C008F444C080E04A
:10365000C330DD4509F06ECF0E9491276BCF80917A
:10366000290581608093290565CF809129058460B3
:10367000F9CF80912A058260C9CF809129058064A5
:10368000F1CF0E940A21809129058068EBCF8091BB
:1036900029058D7FE7CF80912905877FE3CF809132
:1036A00029058F7DDFCF809129058F7BDBCF80912E
:1036B0002905837FD7CF80912A058C7FA7CF809162
:1036C000290582FB992790F921E0922790FB82F946
:1036D00090FB83F9C7CF80912A05982F9095917020
:1036E0008E7F892B90FB81F991CF0E940A219091C6
:1036F0002905892F97FB87F98058B4CF81E0ACCF9B
:1037000081E021CFCF93DF93EB0186319C4511F50A
:103710000E9432269A81992399F08A7A91E009F4DD
:1037200090E090935804811109C089E20E94EC2531
:103730000E94752680E0DF91CF91089585E3F6CF52
:1037400080915804811104C089E20E94F325F0CFD2
:1037500085E3FBCF81E0EFCF1092B9008CE080933E
:10376000B8000895EF92FF920F931F93CF93DF93CA
:10377000182FEB011092BC0084EA8093BC000E94D9
:10378000D7287C018091BC0087FF27C08091B900B9
:10379000887F883029F08091B900887F8031D9F501
:1037A0001093BB0084E88093BC000E94D7288C0152
:1037B0008091BC0087FF24C02091B900287F90E051
:1037C00080E02831B1F081E090E0203411F490E005
:1037D00080E09195819591090CC0CF3FDC0791F273
:1037E0000E94D7288E199F098C179D0758F28EEFDB
:1037F0009FEFDF91CF911F910F91FF90EF90089570
:10380000CF3FDC07A9F20E94D728801B910B8C17B1
:103810009D0770F2ECCF8FEF9FEFEBCF0F931F93CD
:10382000CF93DF93EB018093BB0084E88093BC00CF
:103830000E94D7288C018091BC0087FF11C0209185
:10384000B900287F81E090E0283211F490E080E018
:10385000919581959109DF91CF911F910F910895D5
:10386000CF3FDC0741F30E94D728801B910B8C17B8
:103870009D0708F38EEF9FEFEECFCF92DF92EF928E
:10388000FF920F931F93CF93DF936B018A0179010E
:10389000B9010E94B21BE6010C0D1D1DC017D10716
:1038A00061F424E92093BC00DF91CF911F910F9127
:1038B000FF90EF90DF90CF90089597FDF2CFB70182
:1038C00089910E940E1CEACF90935E0480935D0460
:1038D0000895E0915D04F0915E04309721F001902D
:1038E000F081E02D099480E00895E0915D04F0916D
:1038F0005E04309711F480E008950190F081E02D8E
:1039000009950895E0915D04F0915E04309799F077
:1039100020911B02222359F02091290527FF07C07F
:10392000DC012C9111962C93119725E02C930280A9
:10393000F381E02D09940895E0915D04F0915E0417
:10394000309739F022E0DC012C930480F581E02DE2
:103950000994089520915B0430915C04281739077D
:1039600071F090935C0480935B04E0915D04F091AE
:103970005E04309721F00680F781E02D09940895C8
:103980002091590430915A042817390771F0909307
:103990005A0480935904E0915D04F0915E043097DD
:1039A00021F00084F185E02D099408950E94E32818
:1039B00060936E0470936F0480937004909371040D
:1039C00060936A0470936B0480936C0490936D040D
:1039D000089585B7806885BF85B7806885BF0895DD
:1039E000089508950C94F01C08950C94F41C0E9402
:1039F000E91C82EE96E20E9462290E94F11C0C945E
:103A0000F21C81E008950C94011D089508950E9410
:103A1000051D0C94061D0E94CE280E9429060C94B8
:103A2000F51C8F929F92AF92BF92CF92DF92EF924E
:103A3000FF920F931F93CF93DF93CDB7DEB72A97F3
:103A40000FB6F894DEBF0FBECDBF0E94770681117E
:103A50000E94D61C50E6852E54E0952E10E000E022
:103A6000E02E802F0E9400065C01F401C190D190ED
:103A70004F01C816D906B1F40F5F1F4F053011056D
:103A800079F78FEF89838A831B820E94D728816010
:103A9000782F9D838C8349815A816B818D810E940F
:103AA000CB1D3DC08091050581FD0E940906C60120
:103AB0008A259B25F12CCC24C394D12C9C012C214C
:103AC0003D21232B09F44DC00E94031D95012C219B
:103AD0003D21BB24B394232B09F4B12C882379F026
:103AE000FE82EF82B8860E94D7288160782F9A875D
:103AF00089874E815F8168858A850E94CB1D000F72
:103B0000111FF801E05AFB4F80819181C826D92608
:103B1000D182C0824B2D6F2D8E2D0E94AB130E943F
:103B200069140E94A2080E94691C90915F04891781
:103B3000F9F00E94691C80935F042A960FB6F894EE
:103B4000DEBF0FBECDBFDF91CF911F910F91FF90D0
:103B5000EF90DF90CF90BF90AF909F908F900C949C
:103B6000CE03F394CC0CDD1CFEE0FF12A7CF84CF74
:103B70002A960FB6F894DEBF0FBECDBFDF91CF916E
:103B80001F910F91FF90EF90DF90CF90BF90AF907B
:103B90009F908F900895DF92EF92FF920F931F9363
:103BA000CF93DF93CDB7DEB72B970FB6F894DEBF78
:103BB0000FBECDBF7A878B87F42E052F162FE72EE9
:103BC000D82E61110E9452261E821D827E2DEC820B
:103BD000DD824F2D502F612F8D2D9E812B960FB69C
:103BE000F894DEBF0FBECDBFDF91CF911F910F9133
:103BF000FF90EF90DF900C948023FC0180819181F5
:103C00000C94BE25CF93C82F882309F447C08CEFAE
:103C10008C0F813AA0F46C2F80910F0290911002CA
:103C20000E94AA27882329F08C2F0E94F3250E9446
:103C300075268C2F0E94EC25CF910C94752680E27E
:103C40008C0F883048F4C77081E001C0880FCA9596
:103C5000EAF70E943526F0CFEBE5EC0FE33040F4B5
:103C6000F0E0EB56FC4F808190E0CF910C94AA1CC1
:103C7000E8E5EC0FE73150F4F0E0EE0FFF1FE959F3
:103C8000FC4F80819181CF910C94C01CCD3E30F0CF
:103C90008C2F0E94B407CF910C948708CF91089580
:103CA000882361F19CEF980F913A20F40E94F3254C
:103CB0000C94752690E2980F983050F4877091E03C
:103CC00001C0990F8A95EAF7892F0E943B26F0CF11
:103CD0009BE5980F933020F490E080E00C94AA1CB0
:103CE00098E5980F973120F490E080E00C94C01C88
:103CF0008D3E20F00E940E080C94870808951F93B3
:103D0000CF93DF93182FEB010E94021E209731F40E
:103D1000812FDF91CF911F910C94501E8FE99FE06E
:103D20000197F1F700C000002197F0CF70E060E04C
:103D3000893311F460E570E00C947F1E882321F034
:103D40000E9435260C9475260895882321F00E9440
:103D50003B260C9475260895BF92CF92DF92EF9286
:103D6000FF920F931F93CF93DF936C01D62FC72F32
:103D7000FC011281058102950F700E940A26E82E2F
:103D80008823A1F0E12E112389F08C2F807F8034CD
:103D900029F080E28D0FE12C883040F082E00E9413
:103DA000C6260E940A2691E0E82EE926BC2EB2948F
:103DB0009FE0B922FBE0FB1598F1EB2DF0E0E65710
:103DC000FE4C0C946C300C2F0F70C07F11F00295DC
:103DD000007F1123A9F0002359F080E28D0F883075
:103DE00010F0D11109C0802F0E9435260E9475263F
:103DF0008D2F0E94021E14C0802F0E944526F6CFF0
:103E00008D2F0E94501E002359F080E28D0F8830C4
:103E100010F0D1112CC0802F0E943B260E947526E5
:103E20002B2D2850330B2430310520F40E94691CBF
:103E30000E94CE03EE2009F48EC10E94062680FD6A
:103E40008AC1F60112820E9400260E948C24C601BB
:103E50000E94CC200E940026DF91CF911F910F91EC
:103E6000FF90EF90DF90CF90BF900C94AD24802F07
:103E70000E944B26D3CF2C2F2F70F22EC07FC03242
:103E800019F0F29480EFF822DD2369F0D13049F186
:103E9000112391F1002351F1F601858180FFA8CF14
:103EA0008F70858323C0112381F0011106C00E9409
:103EB00058268F290E949E1EB3CF0130C1F70E9461
:103EC00058268F290E945E26ABCF011106C00E94A2
:103ED0006B268F2D0E94A51EA3CF013009F4A0CF21
:103EE000F6CF112329F0063008F09ACF8F2DE2CFBC
:103EF000053008F095CFEDCF002359F3D93349F4BD
:103F0000FFEF27EE33E0F15020403040E1F700C0F2
:103F100000008D2F0E94501E83CF8C2F8695869592
:103F2000837069F0813009F07BCF8D2F9C2F9370C7
:103F3000111102C090E080E00E94C01C71CF8D2F53
:103F40009C2F9370111102C090E080E00E94AA1C87
:103F500067CF8D2F112329F00E94B4070E94870894
:103F60005FCF0E940E08FACF8C2F837009F041C0FA
:103F7000111156CF4D2F429546954770440F440F6F
:103F80000D2F0F7010E030E020E0042E04C0000F71
:103F9000111F221F331F0A94D2F760E070E0CB019B
:103FA000D4FF0FC06FE070E080E090E004C0660FC7
:103FB000771F881F991F4A95D2F760957095809555
:103FC0009095C695C695C370602B712B822B932B51
:103FD000C23049F058F4C13019F00E943E2420CF7D
:103FE0000E942C241DCF0E9450241ACF0E942A2404
:103FF00017CF8695112311F08C2F8170882309F437
:104000000FCF4D2F429546954770440F440F0D2F0B
:104010000F7010E030E020E0042E04C0000F111FEC
:10402000221F331F0A94D2F760E070E0CB01D4FF67
:104030000FC06FE070E080E090E004C0660F771F73
:10404000881F991F4A95D2F7609570958095909535
:10405000C695C695C370602B712B822B932BC230F3
:1040600049F058F4C13019F00E940325D9CE0E94BE
:10407000F124D6CE0E941525D3CE0E946624D0CE40
:10408000CF70112329F08C2F0E948C248D2F12CFFA
:104090008D2F0E94A51E8C2F0E94AD24C1CED23F31
:1040A00089F160F4D03FC9F0D13F29F1112309F41F
:1040B00042C001119DCE8C2F8F7121C0D33F39F1A9
:1040C000D43FA1F7112369F1CF718C2F0E948C246A
:1040D00063E08C2F0E94AB26A3CE112341F0053064
:1040E00008F09ECE8C2F8F710E94D02499CE06307E
:1040F00008F096CEF7CF8C2F8F71112369F20E94B2
:104100008C248ECE8C2F8F711123C9F3C5CF112330
:1041100029F08C2F8F710E94772482CE0E94722406
:104120007FCE81E00E94C626023008F479CE82E07C
:104130000E94C62675CE002359F0D93309F0E9CE86
:104140008FEF97EEE3E081509040E040E1F7DFCE63
:104150008C2F8F71A1CFDF91CF911F910F91FF9085
:10416000EF90DF90CF90BF9008950F931F93CF9360
:10417000DF93EC01688179818A810E94C8258C01D6
:104180000E9427250E942924B801CE01DF91CF91FA
:104190001F910F910C94AC1ECF93DF93EC018B8198
:1041A0009C81892B29F08881998189238F3F59F43B
:1041B000DF91CF910895CE010E94B520CE01DF910D
:1041C000CF910C944C03CE010E946F038111F3CF69
:1041D0000E940A26882361F38A81882349F382E0BA
:1041E000DF91CF910C94C62690E080E00E94AA1C3B
:1041F00090E080E00E94C01C0E9452260E9455263A
:104200000E9475260E94AE090C9487080E94FA2528
:104210000C94F4200E9442260C940621E92FE2958A
:10422000EF70E250EE3070F4F0E0EA56FE4C0C9481
:104230006C30803F19F020F4883E20F481E008952E
:10424000843FE1F380E00895883EC0F3813FD1F7D9
:10425000F5CF93FB882780F908950E94BE250C9422
:104260000E21CF93DF9300D000D00F92CDB7DEB7F1
:104270000F900F900F900F900F90DF91CF910895B6
:10428000CF93DF9300D000D000D0CDB7DEB7269615
:104290000FB6F894DEBF0FBECDBFDF91CF9108956A
:1042A0001F93CF93DF93C091730416E08091740441
:1042B0008C1304C0DF91CF911F910895D0E01C9F13
:1042C000F0011D9FF00D1124EB58FB4F40815181EF
:1042D00062817381848195810E9440212196C770FB
:1042E000E5CF4091A5045091A6046091A704709178
:1042F000A8048091A9049091AA040C9440211F93D2
:10430000CF93DF938091AA04807FA9F48091A704C2
:10431000882389F080917304C09174046091A5048E
:104320007091A604A091A804B091A904D62FD72318
:1043300016E0C81304C0DF91CF911F91089590E05B
:10434000109711F0DF3F19F401968770F2CF189F94
:104350009001199F300D1124F901EB58FB4F418159
:104360004713F2CF40814613EFCF42814111ECCF8A
:10437000438154814A1B5B0B483C510528F78091CF
:10438000AA048F7080618093AA04F901E658FB4F5C
:1043900080818F708061808385EA94E00E94CC20C8
:1043A000DF91CF911F910C945021AF92BF92CF9289
:1043B000DF92EF92FF920F931F93CF93DF93CDB7CE
:1043C000DEB761970FB6F894DEBF0FBECDBF8C018C
:1043D00085E0F801DE011D9601900D928A95E1F7C6
:1043E000F80140815181E28085EAC82E84E0D82E10
:1043F0006091A8047091A9046115710509F461C167
:104400009091A5042091A604892F82238F3F09F45F
:1044100058C1A380B480F090A704F501E61BF70B08
:10442000FF2009F4FCC08091AA04382F307FE83CBB
:10443000F10508F0B2C0311179C0FE2C251323C05C
:10444000941321C0E1101FC08F7080618093AA0473
:104450000E947121C6010E94CC208091AA04F8011B
:1044600085838F2D61960FB6F894DEBF0FBECDBF4A
:10447000DF91CF911F910F91FF90EF90DF90CF9040
:10448000BF90AF900895AB2829F0842F85238F3FEC
:1044900009F033C180E0F82FF170DF2E80FF3CC0BF
:1044A000809173042091740436E0821315C04D8707
:1044B0005E878D859E850E94BE25292F22952F70AF
:1044C0002230F0F0243018F59F70F1F0F80195815A
:1044D000907FD1F4D12C1EC090E0389FF001399F1D
:1044E000F00D1124EB58FB4F6181651306C060810C
:1044F000641303C062816E110FC001968770D5CF1F
:104500009F7011F0882331F3805E883018F3C80162
:104510000E94CC20FD2CA5CFEE2009F4A2CF8091E3
:10452000AA0481608093AA04F12C9BCF251306C0B6
:10453000941304C0F801EE2009F48DC04D875E8706
:104540008D859E850E942D21882319F1EE2009F189
:104550008091AA04803270F02091A5043091A604C5
:1045600038872F831986BB86AA868C87CE0107964B
:104570000E94CC2086E0F801A5EAB4E001900D92FB
:104580008A95E1F70E947F210E947121FF24F39414
:1045900068CFC8010E94CC20F9CF311113C07A2D09
:1045A000B98AA88A6E2D89890E94312185EA94E012
:1045B0000E94CC2086E0F60111928A95E9F70E94CC
:1045C0007121B2CF25130FC094130DC0E1100BC0A1
:1045D000F8018583C8010E94CC2086E0F601119283
:1045E0008A95E9F73ECF4D875E878D859E850E942F
:1045F0002D21882371F2EE2061F28091AA0480328D
:1046000008F4B8CF2091A5043091A6043A832983F9
:104610001B82BD82AC828E83CE010196A9CFE83C7D
:10462000F10508F041C0FE2CEE2009F4B2CF2513AD
:104630002AC0941328C08091AA0480FD1BC0982F23
:10464000907FC1F0F8018583903F31F0982F907FE3
:10465000905F8F70892B8583C8010E94CC2086E0F3
:10466000F801A5EAB4E001900D928A95E1F70E9465
:104670007121F7CE86E0F801A5EAB4E001900D9231
:104680008A95E1F7EECE4D875E878D859E850E94E7
:104690002D2181116FCF8091AA0481608093AA049B
:1046A000C8010E94CC20DDCE7A2DB98AA88A6E2D51
:1046B00089890E94312186E0F60111928A95E9F7F5
:1046C000D6CFEE2009F465CF4D875E878D859E8518
:1046D0000E942D21F82E882309F45BCF86E0F80193
:1046E000A5EAB4E001900D928A95E1F785EA94E09D
:1046F0000E94FD1D0E947F21BACF81E08E25CBCE86
:104700001F93CF93DF93CDB7DEB72C970FB6F894F6
:10471000DEBF0FBECDBF4F83588769877A878B87EF
:104720009C87CE0107960E94D521882369F08A854F
:104730009B85892B39F04F815885842F85238F3FA6
:1047400009F071C016E05FC086E0FE013796DE0119
:10475000119601900D928A95E1F78A859B85892BA8
:1047600089F38F81988589238F3F61F320917404A9
:1047700030E0C9010196877099274091730448176A
:10478000190671F40E940A211092740410927304A5
:1047900086E0E5EAF4E0DF011D928A95E9F7D2CFE1
:1047A00096E0929FD001939FB00D1124AB58BB4F60
:1047B000FE01319601900D929A95E1F78093740471
:1047C0000E945021BFCF819FC00111248B589B4F65
:1047D0000E94D5218823E9F0E09173041E9FF00127
:1047E0001124EB58FB4F4081518162817381848198
:1047F00095810E9440218091730490E0019687701A
:1048000099278093730480917304909174048913A1
:10481000DACF2C960FB6F894DEBF0FBECDBFDF9176
:10482000CF911F91089569857A858B859C850E941B
:10483000402188CF08950C941A240E941B24609371
:10484000DC047093DD048093DE049093DF040C9409
:10485000F42008950C941D240F931F930091DC0401
:104860001091DD042091DE043091DF04602B712B68
:10487000822B932B1F910F910C941D240F931F9348
:104880000091DC041091DD042091DE043091DF04FE
:1048900060237123822393231F910F910C941D2475
:1048A0000F931F930091DC041091DD042091DE042E
:1048B0003091DF0460277127822793271F910F9182
:1048C0000C941D240C941A240C9462240E946424D9
:1048D0006093D8047093D9048093DA049093DB0436
:1048E0000C94F42060E070E0CB010C9466240F93EC
:1048F0001F9341E050E060E070E08A019B0104C03A
:10490000000F111F221F331F8A95D2F7C901B8016A
:104910001F910F910C9466240F931F9341E050E078
:1049200060E070E004C0440F551F661F771F8A9532
:10493000D2F78091D8049091D904A091DA04B09173
:10494000DB048A019B01082B192B2A2B3B2BC90165
:10495000B8011F910F910C9466240F931F9341E0AF
:1049600050E060E070E004C0440F551F661F771FE1
:104970008A95D2F7CB01BA01609570958095909594
:104980000091D8041091D9042091DA043091DB040D
:1049900060237123822393231F910F910C9466242B
:1049A0000F931F9341E050E060E070E004C0440FBB
:1049B000551F661F771F8A95D2F78091D804909172
:1049C000D904A091DA04B091DB048A019B01082785
:1049D00019272A273B27C901B8011F910F910C9471
:1049E00066240F931F930091D8041091D90420914D
:1049F000DA043091DB04602B712B822B932B1F91F7
:104A00000F910C9466240F931F930091D80410917A
:104A1000D9042091DA043091DB04602371238223CE
:104A200093231F910F910C9466240F931F93009171
:104A3000D8041091D9042091DA043091DB04602766
:104A40007127822793271F910F910C946624089554
:104A50002EE0929F800D1124982F977041E001C0A5
:104A6000440F9A95EAF786958695869595E0899FF5
:104A7000F0011124E555FB4F90E080E070E051918A
:104A8000DF0111979B01082E02C0369527950A94E5
:104A9000E2F7217021952527242325272C930196C1
:104AA0008530910561F708952EE0929F800D1124C5
:104AB000982F977086958695869525E0829FF001C0
:104AC0001124E555FB4F50E040E080E0219130E0BB
:104AD000092E02C0369527950A94E2F721703327F4
:104AE000042E01C0220F0A94EAF7822B4F5F5F4F1A
:104AF0004530510559F70895BF92CF92DF92EF925A
:104B0000FF920F931F93CF93DF938C01C090D80433
:104B1000D090D904E090DA04F090DB048091DC04BA
:104B20009091DD04A091DE04B091DF04C82AD92A57
:104B3000EA2AFB2ACFE1D0E0BC2ED701C6010C2E19
:104B400004C0B695A795979587950A94D2F780FDEE
:104B50000EC0219788F7B12C8B2DDF91CF911F913B
:104B60000F91FF90EF90DF90CF90BF900895B80124
:104B70008C2F0E94EA03019761F3EECFCF93DF936E
:104B8000EC010E947C25BE01DF91CF910C94EA03D9
:104B90001F93CF93DF93EB0190917204992331F02F
:104BA000CB01DF91CF911F910C94BE25882379F022
:104BB000CB010E947C25182F682FCE010E9428254A
:104BC000BE01812FDF91CF911F910C94EA03CB019D
:104BD0000E945425182FF4CF682F80910F029091D6
:104BE00010020C942A28682F80910F0290911002D5
:104BF0000C94352880910F02909110020C9440285B
:104C00008091E00485958595859508958091E004CF
:104C1000877008959091E004977081E009F480E036
:104C2000089590912A0592FB222720F9281751F028
:104C300080FB92F990932A058091290590912A058D
:104C40000C940B27089580912A0582FB882780F910
:104C500091E089270C94112681E00C94112680E0C4
:104C60000C94112680910405089590910405892BD8
:104C7000809304050895809590910405982390935E
:104C80000405089510920405089590910305892B59
:104C90008093030508958095909103059823909340
:104CA00003050895109203050895109202050895D2
:104CB0008091E104089508950C945B2690912A0553
:104CC00092FD08C09091E104981721F08093E104CF
:104CD0000C945C2608958091E104882329F01092B9
:104CE000E10480E00C945C260895E0910F02F091BD
:104CF0001002809104058083E0910F02F091100270
:104D0000808190910305892B8083E0910F02F091BF
:104D10001002808190910205892B80839091E1049B
:104D2000992381F0E0910F02F09110028081892B8C
:104D3000808380910F02909110020E94962781112A
:104D40000E946B2680910F02909110020C94821C9D
:104D500008950C94A82690912A0592FD10C098E021
:104D6000899F90011124622B6093E0040E948C249F
:104D70008091E0048595859585950C94A9260C94E1
:104D80008C241092E00480E00C94A9269091E00419
:104D9000809589238093E004282F277039F4282FE9
:104DA000082E000C330B9217130621F490912A055C
:104DB00092FF07C08595859585950E94AD240C943A
:104DC000C126089580E008956FEF7FEF90E080E0C6
:104DD0000C94453190E080E00E94113121E08A3E40
:104DE0009E4F09F020E0822F089582E090E00C941D
:104DF000093183E090E00C940931CF9384E090E096
:104E00000E940931C82F82E290E00E940931982F58
:104E10008C2FCF910895CF93C92F682F84E090E015
:104E20000E9427316C2F82E290E0CF910C942731C1
:104E3000AB01BC018FE090E00C943931AB01BC01B7
:104E400083E190E00C94393160E070E0CB010C9488
:104E50001E2760E070E0CB010E9418270C942427E5
:104E60006AEE7EEF90E080E00E94453160E082E0F3
:104E700090E00E94273160E083E090E00E942731BB
:104E80001092DC041092DD041092DE041092DF0414
:104E900060E084E090E00E94273160E082E290E0F0
:104EA0000E94273160E085E090E00E94273160E0B9
:104EB00086E090E00E9427316FEF87E090E00E944B
:104EC000273140E050E0BA0188E090E00E9439319B
:104ED00060E08DE090E00E94273140E050E0BA01B0
:104EE00088E190E00E94393160E087E190E00E9423
:104EF000273140E050E0BA018CE190E00E94393166
:104F000070E060E080E290E00E94453140E050E0D7
:104F1000BA0188E190E00E9439310C9429270C9461
:104F20003027682F8EE090E00C942731FC013296F8
:104F300080911B02882321F0809129059EE187FF43
:104F400096E080E0915008F4089521912223D1F356
:104F50008F5FF8CF662301F120911B022223F1F02D
:104F60002091290527FF1AC0462F4695469546955C
:104F70004E3190F4677021E030E002C0220F331F01
:104F80006A95E2F7840F911DFC01828190E028234D
:104F9000392381E0232B69F480E00895FC013296E7
:104FA00008962191261721F0E817F907D1F7F4CFD9
:104FB00081E008959C01FC0132969FEF80E04191D1
:104FC000461751F09F3F19F4411101C0982F8F5F90
:104FD0008630A9F79F3F09F40895290F311D97FDE9
:104FE0003A95F90162830895FC0132960896219161
:104FF000261303C0DF0111971C92E817F907B9F7D0
:105000000895E62FE695E695E695EE3168F4E80F0B
:10501000F92FF11D677021E030E001C0220F6A9581
:10502000EAF78281822B82830895E62FE695E69542
:10503000E695EE3170F4E80FF92FF11D677021E06D
:1050400030E001C0220F6A95EAF72095828128237B
:105050002283089520911B02222329F02091290503
:1050600027FD0C9401280C94DA2720911B0222239F
:1050700029F02091290527FD0C9415280C94F4277C
:10508000FC01329680911B02882351F08091290502
:1050900087FF06C08EE1DF011D928A95E9F708952A
:1050A00086E0F9CF0895089580910E07843061F16C
:1050B0000E94F10280E00E94CE0381E00E94491626
:1050C0001092060588E190E020E40FB6F894A895C8
:1050D000809360000FBE2093600083B7817F84605F
:1050E00083BF83B7816083BF7894889583B78E7FB1
:1050F00083BF0FB6F894A895809160008861809373
:105100006000109260000FBE08950895CF930E9432
:1051100052280E9477060E948528C0E08C2F0E94AA
:105120000006892B31F4CF5FC530C1F780E0CF9105
:10513000089581E0FCCF08950E940A210E94691C15
:105140000E94CE0380E00E9449160C94F6021F9242
:105150001FB61F9211248F939F93AF93BF9380919B
:105160000605811113C08091060790910707A09151
:105170000807B09109074196A11DB11D809306074C
:1051800090930707A0930807B0930907BF91AF91C9
:105190009F918F911F901FBE1F90189582E084BD34
:1051A00093E095BD9AEF97BD80936E0008952FB759
:1051B000F8948091060790910707A0910807B09195
:1051C00009072FBF08952FB7F894609106077091D3
:1051D000070780910807909109072FBF08959C0148
:1051E0004FB7F8948091060790910707A0910807A0
:1051F000B09109074FBF821B930B0895CF92DF92A6
:10520000EF92FF922FB7F894C0900607D09007074F
:10521000E0900807F09009072FBFA7019601261B11
:10522000370B480B590BCA01B901FF90EF90DF9083
:10523000CF90089578941F921FB61F9211248F93D8
:105240009F93AF93BF938091060790910707A0911A
:105250000807B09109070196A11DB11D80930607AB
:1052600090930707A0930807B0930907BF91AF91E8
:105270009F918F911F901FBE1F90189581E0809382
:10528000E00080E28093D8001092C9008FE19EE494
:105290000197F1F700C0000087E090EBDC018093FC
:1052A000170790931807A0931907B0931A0788E17E
:1052B0009CE00FB6F894A895809360000FBE909381
:1052C0006000FFCF90939903809398030895809195
:1052D00027050895CF93DF9300D00F92CDB7DEB7A7
:1052E00090910E07943019F589837B836A8382E05D
:1052F0008093E9008FEF9091E800815095FD06C002
:1053000095ED9A95F1F700008111F5CF8091E800B5
:1053100085FF0DC050E040E063E070E0CE010196F3
:105320000E94942B8091E8008E778093E8000F9084
:105330000F900F90DF91CF910895BC0184E00C9401
:105340006A29BC0183E00C946A299C0182E0809365
:10535000E9009FEF8091E800915085FD06C085ED42
:105360008A95F1F700009111F5CF8091E80085FF53
:105370000CC050E040E066E070E0C9010E94942B50
:105380008091E8008E778093E8000895CF93DF93B3
:10539000EC0180911B028823B1F18091290587FFE0
:1053A00032C060E282E08093E9008FEF9091E800E4
:1053B000815095FD06C095ED9A95F1F70000811199
:1053C000F5CF8091E80085FF1BC080911B0270E043
:1053D00050E040E0811104C050E040E068E070E03F
:1053E000CE010E94942B8091E8008E778093E80094
:1053F00080E2FE01A7E0B5E001900D928A95E1F709
:10540000DF91CF91089568E081E0CDCF80910D07C5
:10541000811109C00E94242D0E94812D8091E200FB
:1054200084608093E200089510920D070895089516
:105430000895089542E061EC81E00E94A02C42E2D0
:1054400061EC82E00C94A02C80911007833009F469
:105450005FC030F48130C1F1823009F49BC00895FF
:105460008A3009F487C08B3009F46DC0893009F0A7
:105470004EC080910F07813209F049C08091130717
:1054800090911407029708F042C08091E800877F4E
:105490008093E8008091E80082FF35C09091F3008E
:1054A0008091F200029729F48091F1008B7F813086
:1054B00021F48091F100809327058091E8008B779B
:1054C0008093E8000C94D42C80910F07813AF9F472
:1054D0008091E800877F8093E80080911307909186
:1054E0001407892B61F460E287E095E070E00E9488
:1054F000E32B8091E8008B778093E800089560E0CB
:1055000090E080E0F3CF80910E078111C3CF089522
:1055100080910F07813AD9F7809113079091140772
:10552000892BA9F78091E800877F8093E80080911C
:10553000E80080FFFCCF80911B028093F1008091F6
:10554000E8008E77BDCF80910F07813201F78091FF
:10555000130790911407892BD1F68091E800877F7B
:105560008093E8000E94D42C8091110780931B0245
:105570000C940A2180910F07813249F68091E8004E
:10558000877F8093E8000E94D42C8091120780933B
:105590002805089580910F07813A09F0B8CF8091CE
:1055A000E800877F8093E8008091E80080FFFCCFCF
:1055B00080912805C2CF84B7877F84BF0FB6F89447
:1055C000A8958091600088618093600010926000CF
:1055D0000FBE80E890E00FB6F8948093610090933E
:1055E00061000FBE0E94F71C0E94242D0E94812D95
:1055F0008091E20084608093E20078940E940A30F7
:105600000E940B1D81E192E00E94641C80910E07B4
:10561000853099F00E94111D0E94071DF7CF0E944E
:10562000542880910C07882341F00E948628882303
:1056300021F00E947E2B0E940A2180910E07853066
:1056400071F30E949C28E6CF0C94262B292F332738
:105650002330310519F168F42130310509F444C0D3
:105660002230310509F445C090E080E030E020E0D0
:1056700025C02132310549F122323105A9F780E4F4
:1056800090E02FE035E061157105C1F086EB90E008
:1056900029E534E06130710589F0E6CF9927813042
:1056A000910581F0009729F00297F1F6ECEDF3E017
:1056B00002C0E8E0F4E0849190E09F01FA013183B8
:1056C00020830895E8EFF3E0F6CF89E090E02EE143
:1056D00034E06115710591F389E090E027E334E04F
:1056E0006130710559F3C0CF82E190E027E434E0E6
:1056F000E5CF8BE390E02CE034E0E0CF80E189BDA2
:1057000082E189BD09B400FEFDCF8091D8008F7D74
:105710008093D8008091E00082608093E0008091C7
:10572000E00081FDFCCF0895AF92BF92CF92DF924F
:10573000FF920F931F93CF93DF936C01EB018A01CC
:105740000E94F32CF82E811123C00115110539F0A8
:10575000F80180819181C81BD90BC80ED91EB12CCC
:10576000A12C2097A9F08091E80085FD22C08091AE
:10577000E8008E778093E80001151105A1F0F8018B
:1057800080819181A80EB91EB182A08285E0F82E99
:105790008F2DDF91CF911F910F91FF90DF90CF90D0
:1057A000BF90AF9008950E94F32C8823D1F2F82E79
:1057B000EFCFF60181916F018093F1002197FFEF08
:1057C000AF1ABF0ACECFFC01809115079091160742
:1057D00086179707A0F06115710529F49091E800EC
:1057E0009E779093E80090E06115710551F4911156
:1057F00008C08091E80082FF34C080E00895BC01B9
:10580000F2CF80910E078823C1F18530C1F18091DC
:10581000E80083FD30C08091E80082FDEACF8091EE
:10582000E80080FFE1CF8091F3002091F200382F53
:105830006115710519F02830310558F091E02830D4
:10584000310509F090E02091E8002E772093E800E0
:10585000CBCF81918093F100615071092F5F3F4F51
:10586000E7CF80910E07882341F0853041F0809189
:10587000E80083FFBECF81E0089582E0089583E0D1
:105880000895FC01809115079091160786179707D8
:10589000A0F06115710529F48091E8008E7780935E
:1058A000E80090E06115710551F4911108C08091F4
:1058B000E80082FF35C080E00895BC01F2CF8091FE
:1058C0000E078823C9F18530C9F18091E80083FD76
:1058D00031C08091E80082FDEACF8091E80080FF2E
:1058E000E1CF8091F3002091F200382F611571050E
:1058F00019F02830310558F091E02830310509F0D1
:1059000090E08091E8008E778093E800CBCF84917F
:105910008093F1003196615071092F5F3F4FE6CFC0
:1059200080910E07882341F0853041F08091E80096
:1059300083FFBDCF81E0089582E0089583E008955C
:10594000982F973028F08F708093E90081E00895B8
:105950009093E900242F762F50E0981731F0709142
:10596000EC002091ED005091F00021FD02C09F5FFE
:10597000E8CF3091EB003E7F3093EB003091ED00AB
:105980003D7F3093ED003091EB0031603093EB00C0
:105990007093EC002093ED005093F0002091EE0006
:1059A00027FDE5CF80E0089580910F0787FF13C0A2
:1059B0008091E80082FF06C08091E8008B77809399
:1059C000E80004C080910E078111F2CF0895809104
:1059D0000E078823D9F38091E80080FFF8CF8091EB
:1059E000E8008E77ECCF2091E4003091E50095E659
:1059F000A9012091EC00822F817020FF06C08091C8
:105A0000E80080FF06C080E008952091E80022FDB4
:105A10001AC080910E07882389F0853089F0809123
:105A2000EB0085FD0FC02091E4003091E5004217A6
:105A30005307F9F29150E1F684E0089582E0089569
:105A400083E0089581E008950E94922D0E949A2D8E
:105A5000E0EEF0E0808181608083E8EDF0E080811D
:105A60008F77808319BCA7EDB0E08C918E7F8C93EB
:105A700080818F7E808310920D0708950F931F936E
:105A8000CF93DF930E94922D0E949A2DC8EDD0E013
:105A900088818F77888388818068888388818F7DDB
:105AA000888319BC10920E0710920A0710920C07F7
:105AB00010920B0700EE10E0F80180818B7F80834D
:105AC00088818160888342E060E080E00E94A02CB1
:105AD000E1EEF0E080818E7F8083E2EEF0E0808175
